:107800000C94763C0C94AE3C0C94933C0C94933CBE
:107810000C94933C0C94933C0C94933C0C94933CAC
:107820000C94933C0C94933C0C94933C0C94933C9C
:107830000C94933C0C94933C0C94933C0C94933C8C
:107840000C94933C0C94933C0C94933C0C94933C7C
:107850000C94933C0C94933C0C94933C0C94933C6C
:107860000C94933C0C94933C040309040C036700B0
:1078700061004700470069001E03410041002000ED
:1078800055007000640061007400650020004D0028
:107890006F00640065001201100100000008C016AE
:1078A000DC05000101020001090222000101008043
:1078B0003209040000010300000009210101000158
:1078C000222100070581030800C80600FF0901A165
:1078D00001150026FF007508850195060900B20212
:1078E00001850295830900B20201C00011241FBE68
:1078F000CFEFD4E0DEBFCDBF11E0A0E0B1E0EAE819
:10790000FFE702C005900D92AA30B107D9F711E048
:10791000AAE0B1E001C01D92AB33B107E1F70E94CC
:10792000C63D0C94C33F0C94003CA82FB92F80E0B7
:1079300090E041E050EA60956F5F58F42D9138EF88
:1079400082279795879510F0842795273F5FC8F386
:10795000F3CF0895EADF8D939D930895CF93CFB72A
:10796000CF93DF93C395499BE9F7499B0BC0499B94
:1079700009C0499B07C0499B05C0499B03C0499B5F
:1079800001C08BC06F93C0911E01DD27CB5DDE4F20
:107990002F9365E5499B03C02F916F91E6CF0F931D
:1079A0001F934F9320E040E15F9309B1067001FB04
:1079B00027F93F9350E03BE039C0167040642F77C1
:1079C000012F53501EC0406819B116702F775350C5
:1079D0001FC0406409B12F770670D1F153500000E9
:1079E00023C0406219B12F77167091F153500000F7
:1079F00025C006701027515012F45D5F0000115031
:107A000027952C3F19B1C8F616700127015027950C
:107A10002C3FC8F64227499309B1067010274F73CF
:107A2000115027952C3FA8F64695469519B116702A
:107A300079F00127015027952C3F98F66B5A60F397
:107A4000315009B1B0F600C011E01CBB002719C0CD
:107A50003B503195C31BD04011E01CBB0881033C57
:107A600009F10B34F9F020911C011981110F121347
:107A7000EDCF4A81441F093651F10D3211F0013E1C
:107A800029F7009323013F915F914F911F910F912F
:107A90002F916F91CCB3C0FD65CFDF91CF91CFBF58
:107AA000CF91189520912301222369F31091210190
:107AB000112349F534304AF13093210120931D01FF
:107AC00010911E013BE0311B30931E011EC000913E
:107AD00021010130C4F40AE54F70A9F4309100018E
:107AE00034FD14C000930001C1E1D1E013C00527AB
:107AF00010E000C000000BB91AC0052710E0221FDB
:107B00001DC010E021C04AE502C032ED432FC4E1A0
:107B1000D0E032E01AB11660599A0BB11AB956E0AA
:107B200020E865E320FF05270BB9279517951C3F33
:107B3000F0F66695B8F7B1F720FF05270BB9279542
:107B400017951C3FD0F62795179517FF05270000BE
:107B50001C3F0BB9B0F629913A9519F7097F10919E
:107B60002201110FC651D0400BB911F010931C0126
:107B700011E01CBB02601AB1197F402F497F54E00D
:107B80005A95F1F70BB91AB94BB97DCF2F923F92A5
:107B90004F925F926F927F928F929F92AF92BF921D
:107BA000CF92DF92EF92FF920F931F93DF93CF93C9
:107BB00000D000D0CDB7DEB75098589A85E38A95AB
:107BC000F1F74899C7C181E085BF82E085BF809108
:107BD0006900836080936900E89A519A20E040EA46
:107BE0005FE0CA010197F1F72150D9F751987894D5
:107BF000FF2400E065E0E62E58E7652E58E7752E75
:107C00004CE6442E48E7542E38E6232E38E7332E30
:107C10002EEEC22E2FEFD22E2AEB38E7C20ED31E45
:107C200096E9A92E98E7B92E82E0882E81E0982E59
:107C300090912101292F235027FD29C180911E01F8
:107C40004CE050E0481B51094B5D5E4F5C834B8319
:107C500080911D018D3209F0B6C0283009F015C1A0
:107C600053EC509311016AE56093000110920A01F0
:107C7000AB81BC812C91822F807611969C911197BB
:107C80008823C9F0993071F412968C91823031F4C6
:107C900010920D0127FD86C09FEF88C0B1E0B09320
:107CA0000E0168C1913009F065C190922001809267
:107CB0001F0127E060C1EB81FC81828110921A01D3
:107CC000992331F410921B018AE191E022E065C012
:107CD000953019F4809322015DC0963009F04AC0B6
:107CE000AB81BC8113968C91813031F4B09220012C
:107CF000A0921F0122E13AC0823031F4D0922001DB
:107D0000C0921F0122E232C08330D9F4EB81FC81A2
:107D10008281882331F43092200120921F0124E0D7
:107D200025C0813031F45092200140921F012CE097
:107D30001DC08230D1F47092200160921F012EE1AB
:107D400015C0813241F42AEB38E7309320012093AB
:107D50001F0129E00BC0823241F44AEC58E75093EE
:107D6000200140931F0121E201C020E050E4509324
:107D70000A0101C1983019F484E291E009C09930F8
:107D800019F48093240106C09A3021F48AE191E02D
:107D900021E003C08AE191E020E0909320018093EC
:107DA0001F01E9C0AB81BC8116969C9180E880934D
:107DB0000A0106C0EB81FC819681921708F0922F90
:107DC0009093010162C080910A0187FF5EC04091DB
:107DD0000B0150910C015A83498380910D01882336
:107DE00089F4AB81BC811196BC91B983EB81FC8194
:107DF000F281FA832B813C812C5F3F4F3C832B83A4
:107E0000292F2750322F380F30930D0189818F771A
:107E100059F4F89443E0E981FA8140935700E895DA
:107E2000789407B600FCFDCFF89449815A81AB8164
:107E3000BC818D919C9161E0FA010C016093570027
:107E4000E895112478943296FA83E98389818F77B3
:107E500049F4F894FA01E0925700E895789407B64F
:107E600000FCFDCF225039F04B815C814E5F5F4FAB
:107E70005C834B83CBCF89819A8190930C01809353
:107E80000B0137FF02C01092010110922101809175
:107E9000000184FF4AC0809101018F3F09F445C071
:107EA000182F893008F018E0811B80930101809120
:107EB000110198E8892780931101112341F1209144
:107EC0001F013091200180910A0186FF0DC0A2E1BF
:107ED000B1E080E090E0F901E80FF91FE491ED9343
:107EE00001961817C1F708C0D901912FE2E1F1E01E
:107EF0008D9181939150E1F71150812F90E01F5F98
:107F00000196820F931F9093200180931F0182E1BD
:107F100091E0612F0E94AA3C612F6C5F6C3019F0D8
:107F20008FEF809301016093000194E189B1867025
:107F300031F49150D9F71092220110921C018091D6
:107F40000E01882309F474CEFA9409F071CE015021
:107F500009F06ECEF89481E180935700E8951DBA40
:107F60001092690081E085BF15BEE0910F01F0918C
:107F70001001099520E0AB81BC8117968C91882374
:0A7F800009F418CF1CCFF894FFCFCE
:0A7F8A005AFF0180000040000000D3
:040000030000780081
:00000001FF
