:100000000C9475000C9480040C9492000C94920053
:100010000C9492000C9492000C9492000C94920018
:100020000C9492000C9492000C9492000C94920008
:100030000C9492000C9492000C9492000C949200F8
:100040000C9492000C9492000C9492000C949200E8
:100050000C9492000C9492000C9492000C949200D8
:100060000C9492000C9492001E03410072006300F5
:1000700061006400650020004100640061007000C0
:100080007400650072001201100100000008C01623
:10009000DC2701000102000105010905A10185011C
:1000A000A10005091901290E15002501950E7501FC
:1000B0008102750295018101050109300931158020
:1000C000257F750895028102C0C0FF0004FF060766
:1000D00005FF020103FFFFFFFFFF040309040C03F8
:1000E0006700610047004700690011241FBECFEF81
:1000F000D4E0DEBFCDBF11E0A0E0B1E0E6E4FBE07C
:1001000002C005900D92A432B107D9F711E0A4E224
:10011000B1E001C01D92A237B107E1F70E94E601EC
:100120000C94A1050C94000014B88FE385B917B89E
:1001300088B91AB889EF8BB9089586E890E0909352
:1001400025018093240182E190E090932701809320
:10015000260188E990E0909337018093360182E38D
:1001600090E0909339018093380181E080932E01D3
:1001700088E291E0909331018093300185E0809393
:10018000320188E690E090933401809333018EE150
:1001900090E090933B0180933A0182E380931901B0
:1001A000F894EAE2F0E0808182608083808186605A
:1001B000808326EF39E040E951E0CA010197F1F769
:1001C00021503040D1F7EAE2F0E080818D7F8083DA
:1001D0008081897F808378940895FC018081807676
:1001E0008032F9F48181813059F48091300190910D
:1001F0003101909357018093560180913201089507
:10020000823041F48FE291E0909357018093560140
:1002100081E008958A3029F4838180932F0180E062
:10022000089580E00895FC0181818630C1F58381C5
:100230008230A1F0833018F4813089F517C0833003
:1002400001F1823261F580913601909137019093EE
:1002500057018093560180913801089580E091E024
:10026000909357018093560182E208958091240172
:10027000909125019093570180935601809126011A
:1002800008958281823059F4809133019091340134
:10029000909357018093560180913A01089580E030
:1002A0000895EF92FF920F931F93CF93DF93FC017A
:1002B000DB01E801B7018081805880838C918058F0
:1002C0008C93FA01808180588083F9018081805865
:1002D00080832881F7013081832F822B09F45CC051
:1002E00018821082922F20FF03C08881816088834A
:1002F00091FF03C088818260888392FF03C0888158
:100300008460888393FF03C088818860888394FF1A
:1003100003C088818061888395FF03C088818062E3
:10032000888396FF03C088818064888322231CF41D
:10033000888180688883932F30FF04C0FB0180810F
:100340008160808391FF04C0FB0180818260808393
:1003500092FF04C0FB0180818460808393FF04C00E
:10036000FB0180818860808394FF04C0FB01808151
:100370008061808395FF04C0FB018081806280835F
:1003800096FF04C0FB01808180648083332324F4C2
:10039000FB01808180688083DF91CF911F910F9155
:1003A000FF90EF900895F894E8E2F1E095E0DF0126
:1003B0001D929A95E9F78083CF010E943402E8E606
:1003C000F0E080818E7F808378940895DF92EF92B1
:1003D000FF920F931F93CF93DF930E9494000E948C
:1003E000EA021092350181E00E94D3010E949D0033
:1003F000FF24F394C7E4D1E0DD24D394EE2401C0BC
:10040000FD2C0E94FC02888184FFFBCF8F2D0E946F
:10041000D30100913201093078F41E2D03C0185F1A
:10042000093058F48091300190913101810F911D74
:10043000602F0E943D0412C01E2D809130019091CA
:100440003101810F911D68E00E943D0408500E9417
:10045000FC02888184FFFBCF002309F7F39480918D
:100460002E018F1570F6CCCFDC01E4E2F0E0808144
:10047000807E8083E5E2F0E080818F618083E7E227
:10048000F0E08081807C8083E8E2F0E080818F630F
:100490008083EAE2F0E0808186708083EBE2F0E026
:1004A0008081896F80834B9904C080E814968C9377
:1004B00014974C9904C08FE714968C9314974D9918
:1004C00004C080E813968C9313974E9904C08FE76D
:1004D00013968C931397489907C011968C91119796
:1004E000816011968C93119789B188233CF0119605
:1004F0008C911197826011968C931197189907C06F
:1005000011968C911197846011968C93119719997B
:1005100007C011968C911197886011968C93119752
:100520001A9907C011968C911197806111968C933E
:1005300011971B9907C011968C91119780621196A3
:100540008C9311971C9907C011968C911197806418
:1005500011968C9311971D9907C011968C91119744
:10056000806811968C931197309907C012968C91E0
:100570001297816012968C931297319907C0129648
:100580008C911297826012968C931297329907C0C1
:1005900012968C911297846012968C9312973399CD
:1005A00007C012968C911297886012968C931297BE
:1005B000349907C012968C911297806112968C9391
:1005C0001297359906C012968C91129780621296F6
:1005D0008C930895E9E6F0E0808182608083EDE30A
:1005E000F0E0808181608083E8E4F1E08BE4808347
:1005F00031978AE5808308951F93CF93DF9380918D
:100600005801982F93500AF4B9C020915501809158
:1006100054018D3209F0B0C0983009F0ADC08CE0C3
:1006200090E0821B9109FC01E45AFE4FEF0183EC3C
:1006300080933C018AE58093220110922D018081F4
:10064000807629F0CF010E94ED00282F8CC0928186
:10065000109245018181882331F4E6E4F1E01082B3
:1006600022E031977CC0853031F49093590120E02D
:10067000E5E4F1E074C0863009F051C08381813037
:1006800031F4CF010E941301282F80E445C082304D
:1006900031F4CF010E941301282F80E03DC0833048
:1006A00031F5992349F48AED90E0909357018093B6
:1006B000560180E424E030C0913049F48EED90E0A2
:1006C000909357018093560180E42CE025C092302E
:1006D00031F4CF010E941301282F80E41DC0933014
:1006E000C9F4CF010E941301282F80E415C0813284
:1006F00049F482E191E0909357018093560180E4A0
:1007000029E00AC0823231F4CF010E941301282F60
:1007100080E402C080E420E080932D0124C0883072
:1007200021F421E0EBE5F1E01AC0893031F4909337
:100730005B0120E0E5E4F1E012C08A3021F421E021
:10074000E5E4F1E00CC08B3021F020E0E5E4F1E0DD
:1007500006C08BE48093480120E0E5E4F1E0F093EB
:100760005701E09356018F81882321F48E818217EF
:1007700008F4282F20932301109258018091220120
:1007800084FF57C0109123011F3F09F452C0193054
:1007900008F05CC010922301ECE3F1E0808198E85E
:1007A00089278083112309F45DC02091560130917F
:1007B000570180912D0186FF14C0ADE3B1E080E0C8
:1007C00090E0F901E80FF91FE491ED9301961817F5
:1007D000C1F7812F815090E00196F901E80FF91FD0
:1007E0000FC0D901912FEDE3F1E08D9181939150EC
:1007F000E1F7812F815090E00196F901E80FF91F90
:10080000F0935701E0935601193068F48DE391E0BD
:10081000612F0E947C04612F6C5F6C3040F48FEF7D
:100820008093230104C08FEF809323016EE16093D6
:10083000220194E1E9E2F0E080818670D1F49150E8
:10084000D9F7109259011092530113C0812F88508B
:1008500080932301ECE3F1E0808198E8892780838D
:1008600018E0A3CF8DE391E060E00E947C0464E097
:10087000D6CFDF91CF911F910895FF920F931F93D1
:10088000DC01F62E8091470184FF07C0E8E4F1E027
:10089000808198E88927808303C08AE58093470197
:1008A0009F2DE9E4F1E08D9181939150E1F709E406
:1008B00011E0C8016F2D0E947C048F2D8C5F0250C7
:1008C0001040F80180831F910F91FF900895A82F89
:1008D000B92F80E090E041E050EA609530E009C037
:1008E0002D9182279795879510F084279527305E64
:1008F000C8F36F5FA8F30895EADF8D939D93089581
:10090000CF93CFB7CF93DF93C395499BE9F7499B2B
:100910000BC0499B09C0499B07C0499B05C0499B27
:1009200003C0499B01C08BC06F93C0915501DD2767
:10093000C45ADE4F2F9365E5499B03C02F916F91F9
:10094000E6CF0F931F934F9320E040E15F9309B1EF
:10095000067001FB27F93F9350E03BE039C0167069
:1009600040642F77012F5F5F1EC0406819B1167079
:100970002F7752501FC0406409B12F770670D1F114
:100980005F5F00C023C0406219B12F77167091F1EC
:100990005F5F00C025C006701027515012F45D5FE4
:1009A0000000115027952C3F19B1C8F61670012789
:1009B000015027952C3FC8F64227499309B106708C
:1009C00010274F73115027952C3FA8F64695469552
:1009D00019B1167079F00127015027952C3F98F630
:1009E0006B5A60F3315009B1B0F600C011E01CBB86
:1009F000002719C03B503195C31BD04011E01CBBF0
:100A00000881033C09F10B34F9F02091530119815D
:100A1000110F1213EDCF4A81441F093651F10D32E7
:100A200011F0013E29F700935A013F915F914F91D8
:100A30001F910F912F916F91CCB3C0FD65CFDF91C6
:100A4000CF91CFBFCF91189520915A01222369F3FE
:100A500010915801112391F5343092F130935801DF
:100A600020935401109155013BE0311B3093550107
:100A700027C00091580101300CF50AE54F7049F488
:100A80003091220134FD1DC000932201CCE3D1E05E
:100A90001CC03091470134FD14C000934701C8E4E5
:100AA000D1E013C0052710E000C000000BB91AC048
:100AB000052710E0221F1DC010E021C04AE502C03A
:100AC00032ED432FC4E1D0E032E01AB11660599AFA
:100AD0000BB11AB956E020E865E320FF05270BB9F2
:100AE000279517951C3FF0F66695B8F7B1F720FFEC
:100AF00005270BB9279517951C3FD0F62795179515
:100B000017FF052700001C3F0BB9B0F629913A9555
:100B100019F7097F10915901110FC651D0400BB937
:100B200011F01093530111E01CBB02601AB1197F40
:100B3000402F497F54E05A95F1F70BB91AB94BB9D8
:060B400074CFF894FFCF12
:100B46000902220001010080FA09040000010300E5
:100B56000000092101010001225700070581030851
:040B660000045AFF2E
:00000001FF
